{"abi":[{"type":"constructor","inputs":[],"stateMutability":"nonpayable"},{"type":"function","name":"allPairs","inputs":[{"name":"","type":"uint256","internalType":"uint256"}],"outputs":[{"name":"","type":"address","internalType":"address"}],"stateMutability":"view"},{"type":"function","name":"allPairsLength","inputs":[],"outputs":[{"name":"","type":"uint256","internalType":"uint256"}],"stateMutability":"view"},{"type":"function","name":"createPair","inputs":[{"name":"tokenA","type":"address","internalType":"address"},{"name":"tokenB","type":"address","internalType":"address"}],"outputs":[{"name":"pair","type":"address","internalType":"address"}],"stateMutability":"nonpayable"},{"type":"function","name":"getPair","inputs":[{"name":"","type":"address","internalType":"address"},{"name":"","type":"address","internalType":"address"}],"outputs":[{"name":"","type":"address","internalType":"address"}],"stateMutability":"view"},{"type":"event","name":"PairCreated","inputs":[{"name":"token0","type":"address","indexed":true,"internalType":"address"},{"name":"token1","type":"address","indexed":true,"internalType":"address"},{"name":"pair","type":"address","indexed":false,"internalType":"address"},{"name":"pairNumber","type":"uint256","indexed":false,"internalType":"uint256"}],"anonymous":false}],"bytecode":{"object":"0x6080604052348015600f57600080fd5b5061370b8061001f6000396000f3fe608060405234801561001057600080fd5b506004361061004c5760003560e01c80631e3dd18b14610051578063574f2ba314610081578063c9c653961461009f578063e6a43905146100cf575b600080fd5b61006b600480360381019061006691906107fe565b6100ff565b604051610078919061086c565b60405180910390f35b61008961013e565b6040516100969190610896565b60405180910390f35b6100b960048036038101906100b491906108dd565b61014b565b6040516100c6919061086c565b60405180910390f35b6100e960048036038101906100e491906108dd565b610774565b6040516100f6919061086c565b60405180910390f35b6001818154811061010f57600080fd5b906000526020600020016000915054906101000a900473ffffffffffffffffffffffffffffffffffffffff1681565b6000600180549050905090565b60008173ffffffffffffffffffffffffffffffffffffffff168373ffffffffffffffffffffffffffffffffffffffff16036101bb576040517f08c379a00000000000000000000000000000000000000000000000000000000081526004016101b29061097a565b60405180910390fd5b600073ffffffffffffffffffffffffffffffffffffffff168373ffffffffffffffffffffffffffffffffffffffff160361022a576040517f08c379a0000000000000000000000000000000000000000000000000000000008152600401610221906109e6565b60405180910390fd5b600073ffffffffffffffffffffffffffffffffffffffff168273ffffffffffffffffffffffffffffffffffffffff1603610299576040517f08c379a0000000000000000000000000000000000000000000000000000000008152600401610290906109e6565b60405180910390fd5b6000808373ffffffffffffffffffffffffffffffffffffffff168573ffffffffffffffffffffffffffffffffffffffff16106102d65783856102d9565b84845b91509150600073ffffffffffffffffffffffffffffffffffffffff166000808473ffffffffffffffffffffffffffffffffffffffff1673ffffffffffffffffffffffffffffffffffffffff16815260200190815260200160002060008373ffffffffffffffffffffffffffffffffffffffff1673ffffffffffffffffffffffffffffffffffffffff16815260200190815260200160002060009054906101000a900473ffffffffffffffffffffffffffffffffffffffff1673ffffffffffffffffffffffffffffffffffffffff16146103e7576040517f08c379a00000000000000000000000000000000000000000000000000000000081526004016103de90610a52565b60405180910390fd5b600073ffffffffffffffffffffffffffffffffffffffff166000808373ffffffffffffffffffffffffffffffffffffffff1673ffffffffffffffffffffffffffffffffffffffff16815260200190815260200160002060008473ffffffffffffffffffffffffffffffffffffffff1673ffffffffffffffffffffffffffffffffffffffff16815260200190815260200160002060009054906101000a900473ffffffffffffffffffffffffffffffffffffffff1673ffffffffffffffffffffffffffffffffffffffff16146104f1576040517f08c379a00000000000000000000000000000000000000000000000000000000081526004016104e890610a52565b60405180910390fd5b81816040516104ff906107b6565b61050a929190610a72565b604051809103906000f080158015610526573d6000803e3d6000fd5b509250826000808473ffffffffffffffffffffffffffffffffffffffff1673ffffffffffffffffffffffffffffffffffffffff16815260200190815260200160002060008373ffffffffffffffffffffffffffffffffffffffff1673ffffffffffffffffffffffffffffffffffffffff16815260200190815260200160002060006101000a81548173ffffffffffffffffffffffffffffffffffffffff021916908373ffffffffffffffffffffffffffffffffffffffff160217905550826000808373ffffffffffffffffffffffffffffffffffffffff1673ffffffffffffffffffffffffffffffffffffffff16815260200190815260200160002060008473ffffffffffffffffffffffffffffffffffffffff1673ffffffffffffffffffffffffffffffffffffffff16815260200190815260200160002060006101000a81548173ffffffffffffffffffffffffffffffffffffffff021916908373ffffffffffffffffffffffffffffffffffffffff1602179055506001839080600181540180825580915050600190039060005260206000200160009091909190916101000a81548173ffffffffffffffffffffffffffffffffffffffff021916908373ffffffffffffffffffffffffffffffffffffffff1602179055508073ffffffffffffffffffffffffffffffffffffffff168273ffffffffffffffffffffffffffffffffffffffff167f0d3648bd0f6ba80134a33ba9275ac585d9d315f0ad8355cddefde31afa28d0e985600180549050604051610764929190610a9b565b60405180910390a3505092915050565b60006020528160005260406000206020528060005260406000206000915091509054906101000a900473ffffffffffffffffffffffffffffffffffffffff1681565b612c1180610ac583390190565b600080fd5b6000819050919050565b6107db816107c8565b81146107e657600080fd5b50565b6000813590506107f8816107d2565b92915050565b600060208284031215610814576108136107c3565b5b6000610822848285016107e9565b91505092915050565b600073ffffffffffffffffffffffffffffffffffffffff82169050919050565b60006108568261082b565b9050919050565b6108668161084b565b82525050565b6000602082019050610881600083018461085d565b92915050565b610890816107c8565b82525050565b60006020820190506108ab6000830184610887565b92915050565b6108ba8161084b565b81146108c557600080fd5b50565b6000813590506108d7816108b1565b92915050565b600080604083850312156108f4576108f36107c3565b5b6000610902858286016108c8565b9250506020610913858286016108c8565b9150509250929050565b600082825260208201905092915050565b7f4964656e746963616c2061646472657373657300000000000000000000000000600082015250565b600061096460138361091d565b915061096f8261092e565b602082019050919050565b6000602082019050818103600083015261099381610957565b9050919050565b7f5a65726f20616464726573730000000000000000000000000000000000000000600082015250565b60006109d0600c8361091d565b91506109db8261099a565b602082019050919050565b600060208201905081810360008301526109ff816109c3565b9050919050565b7f5061697220657869737473000000000000000000000000000000000000000000600082015250565b6000610a3c600b8361091d565b9150610a4782610a06565b602082019050919050565b60006020820190508181036000830152610a6b81610a2f565b9050919050565b6000604082019050610a87600083018561085d565b610a94602083018461085d565b9392505050565b6000604082019050610ab0600083018561085d565b610abd6020830184610887565b939250505056fe608060405260006005556000600655600060075534801561001f57600080fd5b50604051612c11380380612c118339818101604052810190610041919061034e565b81816040518060400160405280600a81526020017f4d696e69414d4d204c50000000000000000000000000000000000000000000008152506040518060400160405280600781526020017f4d494e492d4c500000000000000000000000000000000000000000000000000081525081600390816100be91906105de565b5080600490816100ce91906105de565b5050505050600073ffffffffffffffffffffffffffffffffffffffff168273ffffffffffffffffffffffffffffffffffffffff1603610142576040517f08c379a00000000000000000000000000000000000000000000000000000000081526004016101399061070d565b60405180910390fd5b600073ffffffffffffffffffffffffffffffffffffffff168173ffffffffffffffffffffffffffffffffffffffff16036101b1576040517f08c379a00000000000000000000000000000000000000000000000000000000081526004016101a890610779565b60405180910390fd5b8073ffffffffffffffffffffffffffffffffffffffff168273ffffffffffffffffffffffffffffffffffffffff160361021f576040517f08c379a0000000000000000000000000000000000000000000000000000000008152600401610216906107e5565b60405180910390fd5b8073ffffffffffffffffffffffffffffffffffffffff168273ffffffffffffffffffffffffffffffffffffffff161061025957808261025c565b81815b60086000600960008491906101000a81548173ffffffffffffffffffffffffffffffffffffffff021916908373ffffffffffffffffffffffffffffffffffffffff1602179055508391906101000a81548173ffffffffffffffffffffffffffffffffffffffff021916908373ffffffffffffffffffffffffffffffffffffffff16021790555050505050610805565b600080fd5b600073ffffffffffffffffffffffffffffffffffffffff82169050919050565b600061031b826102f0565b9050919050565b61032b81610310565b811461033657600080fd5b50565b60008151905061034881610322565b92915050565b60008060408385031215610365576103646102eb565b5b600061037385828601610339565b925050602061038485828601610339565b9150509250929050565b600081519050919050565b7f4e487b7100000000000000000000000000000000000000000000000000000000600052604160045260246000fd5b7f4e487b7100000000000000000000000000000000000000000000000000000000600052602260045260246000fd5b6000600282049050600182168061040f57607f821691505b602082108103610422576104216103c8565b5b50919050565b60008190508160005260206000209050919050565b60006020601f8301049050919050565b600082821b905092915050565b60006008830261048a7fffffffffffffffffffffffffffffffffffffffffffffffffffffffffffffffff8261044d565b610494868361044d565b95508019841693508086168417925050509392505050565b6000819050919050565b6000819050919050565b60006104db6104d66104d1846104ac565b6104b6565b6104ac565b9050919050565b6000819050919050565b6104f5836104c0565b610509610501826104e2565b84845461045a565b825550505050565b600090565b61051e610511565b6105298184846104ec565b505050565b5b8181101561054d57610542600082610516565b60018101905061052f565b5050565b601f8211156105925761056381610428565b61056c8461043d565b8101602085101561057b578190505b61058f6105878561043d565b83018261052e565b50505b505050565b600082821c905092915050565b60006105b560001984600802610597565b1980831691505092915050565b60006105ce83836105a4565b9150826002028217905092915050565b6105e78261038e565b67ffffffffffffffff811115610600576105ff610399565b5b61060a82546103f7565b610615828285610551565b600060209050601f8311600181146106485760008415610636578287015190505b61064085826105c2565b8655506106a8565b601f19841661065686610428565b60005b8281101561067e57848901518255600182019150602085019450602081019050610659565b8683101561069b5784890151610697601f8916826105a4565b8355505b6001600288020188555050505b505050505050565b600082825260208201905092915050565b7f746f6b656e582063616e6e6f74206265207a65726f2061646472657373000000600082015250565b60006106f7601d836106b0565b9150610702826106c1565b602082019050919050565b60006020820190508181036000830152610726816106ea565b9050919050565b7f746f6b656e592063616e6e6f74206265207a65726f2061646472657373000000600082015250565b6000610763601d836106b0565b915061076e8261072d565b602082019050919050565b6000602082019050818103600083015261079281610756565b9050919050565b7f546f6b656e73206d75737420626520646966666572656e740000000000000000600082015250565b60006107cf6018836106b0565b91506107da82610799565b602082019050919050565b600060208201905081810360008301526107fe816107c2565b9050919050565b6123fd806108146000396000f3fe608060405234801561001057600080fd5b506004361061010b5760003560e01c806399839d66116100a2578063b4f40c6111610071578063b4f40c61146102e5578063b7d19fc414610303578063d96073cf14610321578063dd62ed3e1461033d578063fc4b6b501461036d5761010b565b806399839d66146102365780639c8f9f23146102545780639cd441da14610285578063a9059cbb146102b55761010b565b806323b872dd116100de57806323b872dd1461019a578063313ce567146101ca57806370a08231146101e857806395d89b41146102185761010b565b806306fdde0314610110578063095ea7b31461012e57806316dc165b1461015e57806318160ddd1461017c575b600080fd5b61011861038b565b6040516101259190611acd565b60405180910390f35b61014860048036038101906101439190611b88565b61041d565b6040516101559190611be3565b60405180910390f35b610166610440565b6040516101739190611c0d565b60405180910390f35b610184610466565b6040516101919190611c37565b60405180910390f35b6101b460048036038101906101af9190611c52565b610470565b6040516101c19190611be3565b60405180910390f35b6101d261049f565b6040516101df9190611cc1565b60405180910390f35b61020260048036038101906101fd9190611cdc565b6104a8565b60405161020f9190611c37565b60405180910390f35b6102206104f0565b60405161022d9190611acd565b60405180910390f35b61023e610582565b60405161024b9190611c37565b60405180910390f35b61026e60048036038101906102699190611d09565b610588565b60405161027c929190611d36565b60405180910390f35b61029f600480360381019061029a9190611d5f565b6107aa565b6040516102ac9190611c37565b60405180910390f35b6102cf60048036038101906102ca9190611b88565b610821565b6040516102dc9190611be3565b60405180910390f35b6102ed610844565b6040516102fa9190611c37565b60405180910390f35b61030b61084a565b6040516103189190611c0d565b60405180910390f35b61033b60048036038101906103369190611d5f565b610870565b005b61035760048036038101906103529190611d9f565b610e29565b6040516103649190611c37565b60405180910390f35b610375610eb0565b6040516103829190611c37565b60405180910390f35b60606003805461039a90611e0e565b80601f01602080910402602001604051908101604052809291908181526020018280546103c690611e0e565b80156104135780601f106103e857610100808354040283529160200191610413565b820191906000526020600020905b8154815290600101906020018083116103f657829003601f168201915b5050505050905090565b600080610428610eb6565b9050610435818585610ebe565b600191505092915050565b600860009054906101000a900473ffffffffffffffffffffffffffffffffffffffff1681565b6000600254905090565b60008061047b610eb6565b9050610488858285610ed0565b610493858585610f65565b60019150509392505050565b60006012905090565b60008060008373ffffffffffffffffffffffffffffffffffffffff1673ffffffffffffffffffffffffffffffffffffffff168152602001908152602001600020549050919050565b6060600480546104ff90611e0e565b80601f016020809104026020016040519081016040528092919081815260200182805461052b90611e0e565b80156105785780601f1061054d57610100808354040283529160200191610578565b820191906000526020600020905b81548152906001019060200180831161055b57829003601f168201915b5050505050905090565b60065481565b600080600083116105ce576040517f08c379a00000000000000000000000000000000000000000000000000000000081526004016105c590611e8b565b60405180910390fd5b60006105d8610466565b905080846006546105e99190611eda565b6105f39190611f4b565b925080846007546106049190611eda565b61060e9190611f4b565b915061061a3385611059565b600860009054906101000a900473ffffffffffffffffffffffffffffffffffffffff1673ffffffffffffffffffffffffffffffffffffffff1663a9059cbb33856040518363ffffffff1660e01b8152600401610677929190611f7c565b6020604051808303816000875af1158015610696573d6000803e3d6000fd5b505050506040513d601f19601f820116820180604052508101906106ba9190611fd1565b50600960009054906101000a900473ffffffffffffffffffffffffffffffffffffffff1673ffffffffffffffffffffffffffffffffffffffff1663a9059cbb33846040518363ffffffff1660e01b8152600401610718929190611f7c565b6020604051808303816000875af1158015610737573d6000803e3d6000fd5b505050506040513d601f19601f8201168201806040525081019061075b9190611fd1565b50826006600082825461076e9190611ffe565b9250508190555081600760008282546107879190611ffe565b9250508190555060075460065461079e9190611eda565b60058190555050915091565b6000806006541480156107bf57506000600754145b156107d5576107ce8383611067565b90506107e2565b6107df8383611247565b90505b7fcb1652de9aeec38545fc281847b3dbfc89aab56dfa907b1ab68466f602c36fb48383604051610813929190611d36565b60405180910390a192915050565b60008061082c610eb6565b9050610839818585610f65565b600191505092915050565b60055481565b600960009054906101000a900473ffffffffffffffffffffffffffffffffffffffff1681565b600082118061087f5750600081115b6108be576040517f08c379a00000000000000000000000000000000000000000000000000000000081526004016108b59061207e565b60405180910390fd5b60008214806108cd5750600081145b61090c576040517f08c379a000000000000000000000000000000000000000000000000000000000815260040161090390612110565b60405180910390fd5b600060055411610951576040517f08c379a00000000000000000000000000000000000000000000000000000000081526004016109489061217c565b60405180910390fd5b60065482108015610963575060075481105b6109a2576040517f08c379a0000000000000000000000000000000000000000000000000000000008152600401610999906121e8565b60405180910390fd5b6000806000841115610bc15760006103e5856109be9190611eda565b90506000600754826109d09190611eda565b90506000826103e86006546109e59190611eda565b6109ef9190612208565b905080826109fd9190611f4b565b93506007548410610a43576040517f08c379a0000000000000000000000000000000000000000000000000000000008152600401610a3a906121e8565b60405180910390fd5b600860009054906101000a900473ffffffffffffffffffffffffffffffffffffffff1673ffffffffffffffffffffffffffffffffffffffff166323b872dd33308a6040518463ffffffff1660e01b8152600401610aa29392919061223c565b6020604051808303816000875af1158015610ac1573d6000803e3d6000fd5b505050506040513d601f19601f82011682018060405250810190610ae59190611fd1565b50600960009054906101000a900473ffffffffffffffffffffffffffffffffffffffff1673ffffffffffffffffffffffffffffffffffffffff1663a9059cbb33866040518363ffffffff1660e01b8152600401610b43929190611f7c565b6020604051808303816000875af1158015610b62573d6000803e3d6000fd5b505050506040513d601f19601f82011682018060405250810190610b869190611fd1565b508660066000828254610b999190612208565b925050819055508360076000828254610bb29190611ffe565b92505081905550505050610dd0565b60006103e584610bd19190611eda565b9050600060065482610be39190611eda565b90506000826103e8600754610bf89190611eda565b610c029190612208565b90508082610c109190611f4b565b94506006548510610c56576040517f08c379a0000000000000000000000000000000000000000000000000000000008152600401610c4d906121e8565b60405180910390fd5b600960009054906101000a900473ffffffffffffffffffffffffffffffffffffffff1673ffffffffffffffffffffffffffffffffffffffff166323b872dd3330896040518463ffffffff1660e01b8152600401610cb59392919061223c565b6020604051808303816000875af1158015610cd4573d6000803e3d6000fd5b505050506040513d601f19601f82011682018060405250810190610cf89190611fd1565b50600860009054906101000a900473ffffffffffffffffffffffffffffffffffffffff1673ffffffffffffffffffffffffffffffffffffffff1663a9059cbb33876040518363ffffffff1660e01b8152600401610d56929190611f7c565b6020604051808303816000875af1158015610d75573d6000803e3d6000fd5b505050506040513d601f19601f82011682018060405250810190610d999190611fd1565b508560076000828254610dac9190612208565b925050819055508460066000828254610dc59190611ffe565b925050819055505050505b600754600654610de09190611eda565b6005819055507f298c349c742327269dc8de6ad66687767310c948ea309df826f5bd103e19d20784848484604051610e1b9493929190612273565b60405180910390a150505050565b6000600160008473ffffffffffffffffffffffffffffffffffffffff1673ffffffffffffffffffffffffffffffffffffffff16815260200190815260200160002060008373ffffffffffffffffffffffffffffffffffffffff1673ffffffffffffffffffffffffffffffffffffffff16815260200190815260200160002054905092915050565b60075481565b600033905090565b610ecb83838360016114ba565b505050565b6000610edc8484610e29565b90507fffffffffffffffffffffffffffffffffffffffffffffffffffffffffffffffff811015610f5f5781811015610f4f578281836040517ffb8f41b2000000000000000000000000000000000000000000000000000000008152600401610f46939291906122b8565b60405180910390fd5b610f5e848484840360006114ba565b5b50505050565b600073ffffffffffffffffffffffffffffffffffffffff168373ffffffffffffffffffffffffffffffffffffffff1603610fd75760006040517f96c6fd1e000000000000000000000000000000000000000000000000000000008152600401610fce9190611c0d565b60405180910390fd5b600073ffffffffffffffffffffffffffffffffffffffff168273ffffffffffffffffffffffffffffffffffffffff16036110495760006040517fec442f050000000000000000000000000000000000000000000000000000000081526004016110409190611c0d565b60405180910390fd5b611054838383611691565b505050565b61106382826118b6565b5050565b600080831180156110785750600082115b6110b7576040517f08c379a00000000000000000000000000000000000000000000000000000000081526004016110ae9061233b565b60405180910390fd5b600860009054906101000a900473ffffffffffffffffffffffffffffffffffffffff1673ffffffffffffffffffffffffffffffffffffffff166323b872dd3330866040518463ffffffff1660e01b81526004016111169392919061223c565b6020604051808303816000875af1158015611135573d6000803e3d6000fd5b505050506040513d601f19601f820116820180604052508101906111599190611fd1565b50600960009054906101000a900473ffffffffffffffffffffffffffffffffffffffff1673ffffffffffffffffffffffffffffffffffffffff166323b872dd3330856040518463ffffffff1660e01b81526004016111b99392919061223c565b6020604051808303816000875af11580156111d8573d6000803e3d6000fd5b505050506040513d601f19601f820116820180604052508101906111fc9190611fd1565b50826006819055508160078190555060075460065461121b9190611eda565b60058190555061123582846112309190611eda565b611938565b905061124133826119ad565b92915050565b600080831180156112585750600082115b611297576040517f08c379a000000000000000000000000000000000000000000000000000000000815260040161128e9061233b565b60405180910390fd5b6000600654846007546112aa9190611eda565b6112b49190611f4b565b9050808310156112f9576040517f08c379a00000000000000000000000000000000000000000000000000000000081526004016112f0906123a7565b60405180910390fd5b600860009054906101000a900473ffffffffffffffffffffffffffffffffffffffff1673ffffffffffffffffffffffffffffffffffffffff166323b872dd3330876040518463ffffffff1660e01b81526004016113589392919061223c565b6020604051808303816000875af1158015611377573d6000803e3d6000fd5b505050506040513d601f19601f8201168201806040525081019061139b9190611fd1565b50600960009054906101000a900473ffffffffffffffffffffffffffffffffffffffff1673ffffffffffffffffffffffffffffffffffffffff166323b872dd3330866040518463ffffffff1660e01b81526004016113fb9392919061223c565b6020604051808303816000875af115801561141a573d6000803e3d6000fd5b505050506040513d601f19601f8201168201806040525081019061143e9190611fd1565b506006548461144b610466565b6114559190611eda565b61145f9190611f4b565b915061146b33836119ad565b836006600082825461147d9190612208565b9250508190555082600760008282546114969190612208565b925050819055506007546006546114ad9190611eda565b6005819055505092915050565b600073ffffffffffffffffffffffffffffffffffffffff168473ffffffffffffffffffffffffffffffffffffffff160361152c5760006040517fe602df050000000000000000000000000000000000000000000000000000000081526004016115239190611c0d565b60405180910390fd5b600073ffffffffffffffffffffffffffffffffffffffff168373ffffffffffffffffffffffffffffffffffffffff160361159e5760006040517f94280d620000000000000000000000000000000000000000000000000000000081526004016115959190611c0d565b60405180910390fd5b81600160008673ffffffffffffffffffffffffffffffffffffffff1673ffffffffffffffffffffffffffffffffffffffff16815260200190815260200160002060008573ffffffffffffffffffffffffffffffffffffffff1673ffffffffffffffffffffffffffffffffffffffff16815260200190815260200160002081905550801561168b578273ffffffffffffffffffffffffffffffffffffffff168473ffffffffffffffffffffffffffffffffffffffff167f8c5be1e5ebec7d5bd14f71427d1e84f3dd0314c0f7b2291e5b200ac8c7c3b925846040516116829190611c37565b60405180910390a35b50505050565b600073ffffffffffffffffffffffffffffffffffffffff168373ffffffffffffffffffffffffffffffffffffffff16036116e35780600260008282546116d79190612208565b925050819055506117b6565b60008060008573ffffffffffffffffffffffffffffffffffffffff1673ffffffffffffffffffffffffffffffffffffffff1681526020019081526020016000205490508181101561176f578381836040517fe450d38c000000000000000000000000000000000000000000000000000000008152600401611766939291906122b8565b60405180910390fd5b8181036000808673ffffffffffffffffffffffffffffffffffffffff1673ffffffffffffffffffffffffffffffffffffffff16815260200190815260200160002081905550505b600073ffffffffffffffffffffffffffffffffffffffff168273ffffffffffffffffffffffffffffffffffffffff16036117ff578060026000828254039250508190555061184c565b806000808473ffffffffffffffffffffffffffffffffffffffff1673ffffffffffffffffffffffffffffffffffffffff168152602001908152602001600020600082825401925050819055505b8173ffffffffffffffffffffffffffffffffffffffff168373ffffffffffffffffffffffffffffffffffffffff167fddf252ad1be2c89b69c2b068fc378daa952ba7f163c4a11628f55a4df523b3ef836040516118a99190611c37565b60405180910390a3505050565b600073ffffffffffffffffffffffffffffffffffffffff168273ffffffffffffffffffffffffffffffffffffffff16036119285760006040517f96c6fd1e00000000000000000000000000000000000000000000000000000000815260040161191f9190611c0d565b60405180910390fd5b61193482600083611691565b5050565b600080820361194a57600090506119a8565b6000600260018461195b9190612208565b6119659190611f4b565b905060008390505b808210156119a25781905060028283866119879190611f4b565b6119919190612208565b61199b9190611f4b565b915061196d565b80925050505b919050565b6119b782826119bb565b5050565b600073ffffffffffffffffffffffffffffffffffffffff168273ffffffffffffffffffffffffffffffffffffffff1603611a2d5760006040517fec442f05000000000000000000000000000000000000000000000000000000008152600401611a249190611c0d565b60405180910390fd5b611a3960008383611691565b5050565b600081519050919050565b600082825260208201905092915050565b60005b83811015611a77578082015181840152602081019050611a5c565b60008484015250505050565b6000601f19601f8301169050919050565b6000611a9f82611a3d565b611aa98185611a48565b9350611ab9818560208601611a59565b611ac281611a83565b840191505092915050565b60006020820190508181036000830152611ae78184611a94565b905092915050565b600080fd5b600073ffffffffffffffffffffffffffffffffffffffff82169050919050565b6000611b1f82611af4565b9050919050565b611b2f81611b14565b8114611b3a57600080fd5b50565b600081359050611b4c81611b26565b92915050565b6000819050919050565b611b6581611b52565b8114611b7057600080fd5b50565b600081359050611b8281611b5c565b92915050565b60008060408385031215611b9f57611b9e611aef565b5b6000611bad85828601611b3d565b9250506020611bbe85828601611b73565b9150509250929050565b60008115159050919050565b611bdd81611bc8565b82525050565b6000602082019050611bf86000830184611bd4565b92915050565b611c0781611b14565b82525050565b6000602082019050611c226000830184611bfe565b92915050565b611c3181611b52565b82525050565b6000602082019050611c4c6000830184611c28565b92915050565b600080600060608486031215611c6b57611c6a611aef565b5b6000611c7986828701611b3d565b9350506020611c8a86828701611b3d565b9250506040611c9b86828701611b73565b9150509250925092565b600060ff82169050919050565b611cbb81611ca5565b82525050565b6000602082019050611cd66000830184611cb2565b92915050565b600060208284031215611cf257611cf1611aef565b5b6000611d0084828501611b3d565b91505092915050565b600060208284031215611d1f57611d1e611aef565b5b6000611d2d84828501611b73565b91505092915050565b6000604082019050611d4b6000830185611c28565b611d586020830184611c28565b9392505050565b60008060408385031215611d7657611d75611aef565b5b6000611d8485828601611b73565b9250506020611d9585828601611b73565b9150509250929050565b60008060408385031215611db657611db5611aef565b5b6000611dc485828601611b3d565b9250506020611dd585828601611b3d565b9150509250929050565b7f4e487b7100000000000000000000000000000000000000000000000000000000600052602260045260246000fd5b60006002820490506001821680611e2657607f821691505b602082108103611e3957611e38611ddf565b5b50919050565b7f4d696e69414d4d3a20494e53554646494349454e545f4c505f414d4f554e5400600082015250565b6000611e75601f83611a48565b9150611e8082611e3f565b602082019050919050565b60006020820190508181036000830152611ea481611e68565b9050919050565b7f4e487b7100000000000000000000000000000000000000000000000000000000600052601160045260246000fd5b6000611ee582611b52565b9150611ef083611b52565b9250828202611efe81611b52565b91508282048414831517611f1557611f14611eab565b5b5092915050565b7f4e487b7100000000000000000000000000000000000000000000000000000000600052601260045260246000fd5b6000611f5682611b52565b9150611f6183611b52565b925082611f7157611f70611f1c565b5b828204905092915050565b6000604082019050611f916000830185611bfe565b611f9e6020830184611c28565b9392505050565b611fae81611bc8565b8114611fb957600080fd5b50565b600081519050611fcb81611fa5565b92915050565b600060208284031215611fe757611fe6611aef565b5b6000611ff584828501611fbc565b91505092915050565b600061200982611b52565b915061201483611b52565b925082820390508181111561202c5761202b611eab565b5b92915050565b7f4d7573742073776170206174206c65617374206f6e6520746f6b656e00000000600082015250565b6000612068601c83611a48565b915061207382612032565b602082019050919050565b600060208201905081810360008301526120978161205b565b9050919050565b7f43616e206f6e6c792073776170206f6e6520646972656374696f6e206174206160008201527f2074696d65000000000000000000000000000000000000000000000000000000602082015250565b60006120fa602583611a48565b91506121058261209e565b604082019050919050565b60006020820190508181036000830152612129816120ed565b9050919050565b7f4e6f206c697175696469747920696e20706f6f6c000000000000000000000000600082015250565b6000612166601483611a48565b915061217182612130565b602082019050919050565b6000602082019050818103600083015261219581612159565b9050919050565b7f496e73756666696369656e74206c697175696469747900000000000000000000600082015250565b60006121d2601683611a48565b91506121dd8261219c565b602082019050919050565b60006020820190508181036000830152612201816121c5565b9050919050565b600061221382611b52565b915061221e83611b52565b925082820190508082111561223657612235611eab565b5b92915050565b60006060820190506122516000830186611bfe565b61225e6020830185611bfe565b61226b6040830184611c28565b949350505050565b60006080820190506122886000830187611c28565b6122956020830186611c28565b6122a26040830185611c28565b6122af6060830184611c28565b95945050505050565b60006060820190506122cd6000830186611bfe565b6122da6020830185611c28565b6122e76040830184611c28565b949350505050565b7f416d6f756e7473206d7573742062652067726561746572207468616e20300000600082015250565b6000612325601e83611a48565b9150612330826122ef565b602082019050919050565b6000602082019050818103600083015261235481612318565b9050919050565b7f4d696e69414d4d3a20494e53554646494349454e545f595f414d4f554e540000600082015250565b6000612391601e83611a48565b915061239c8261235b565b602082019050919050565b600060208201905081810360008301526123c081612384565b905091905056fea26469706673582212208d3967f233f01305997493865984a529eda70652515bdb7fbec057b5ee45aace64736f6c634300081e0033a2646970667358221220c702600e281b863b0fe1fe9a7c621ee0824f6e425dff04c9c5beaa93ccb7de0c64736f6c634300081e0033","linkReferences":{}},"methodIdentifiers":{"allPairs(uint256)":"1e3dd18b","allPairsLength()":"574f2ba3","createPair(address,address)":"c9c65396","getPair(address,address)":"e6a43905"},"id":25}